:020000040000FA
:2000000002075EC2AFF5088114FFFFC2AFF5088126FFFFC2AFF5088138FFFFC2AFF5088151
:200020004AFFFFC2AFF508815CFFFFC2AFF508816EFFFFC2AFF5088180FFFFC2AFF5088178
:2000400092FFFFC2AFF50881A4FFFFC2AFF50881B6FFFFC2AFF50881C8FFFFC2AFF5088138
:20006000DAFFFFC2AFF50881ECFFFFC2AFF50881FEFFFFC2AFF508A110FFFFC2AFF508A1B8
:2000800022FFFFC2AFF508A134FFFFC2AFF508A146FFFFFF758701002274FC120724750A62
:2000A00004750B00780A12074D74021207937A007B00790812055C7402120709851D828588
:2000C0001E83E0F47003A3E0F470030201FE851D82851E83E0F8A3E0F9E84970030201FE0A
:2000E0007402120789E0687003A3E0697010750901024030C2AF75C9AB75C95B80FE53BE4E
:20010000FBE59DA2E650FAE5C654804449F5C6E59E547F644970F853C67FE59EA2E740FA80
:2001200053C680E59E547F70FA43BE049062707408F0750A00F50B780A12074D7C807D01B2
:200140007A007B00790812055C7402120709900186E0F50AA3E0F50B7409780A12076DE53B
:200160000A2408FF53B4F375BC0075BC007CFC7D077A047B0079081203837E09EFC3940A09
:20018000401C800774086E70027E567C007D087A007B00EEF91203830EEEC39F40E6A8BDEE
:2001A000851D82851E83E8F9E5BCF8E0687003A3E069704A851D82851E83E0F8A3E0F97408
:2001C00002120789E8F0A3E9F0851D82851E8374FFF0A3F07409F5D575D480750A01780AD5
:2001E00012074D74021207937A007B101205E27402120709C2AF75C9AB75C95B80FE750AF1
:2002000004780A12074D74021207937A007B00790112055C7402120709851D82851E83E02C
:20022000F47003A3E0F47003020373851D82851E83E0F8A3E0F9E8497003020373740212B3
:200240000789E0F8A3E0F9851D82851E83E0687003A3E0697010750900020830C2AF75C9E2
:20026000AB75C95B80FE74FF68700374FF69600302037353BEFBE59DA2E650FAE5C65480D8
:200280004449F5C6E59E547F644970F853C67FE59EA2E740FA53C680E59E547F70FA43BE73
:2002A000049062707408F0750A00F50B780A12074D7C807D017A007B00790112055C740233
:2002C000120709900186E0F50AA3E0F50B7409780A12076DE50A244FFF53B4F375BC0075FD
:2002E000BC007CFC7D077A047B0079011203837E02EFC39403401C800774086E70027E565F
:200300007C007D087A007B00EEF91203830EEEC39F40E6A8BD851D82851E83E8F9E5BCF8BB
:20032000E0687003A3E069704A851D82851E83E0F8A3E0F97402120789E8F0A3E9F0851DB0
:2003400082851E8374FFF0A3F07409F5D575D480750A01780A12074D74021207937A007B70
:20036000021205E27402120709C2AF75C9AB75C95B80FE43BE03120094C2AF75C9AB75C937
:200380005B80FE74F7120648E9FEAFC7740F5EF50A750B00740B780A12073AEA2400F8EBB7
:2003A000350BF9E82400E93480F9A2AFE433F50AC2AFEEC4540FFAE5C754F84AF5C7E99004
:2003C0000980F0E8A3F0A37470F0A374BDF0EC900985F0900984E054E0F0EDFCE04CF0903E
:2003E00009867420F0A37442F07409F5D575D48075D601000000000000000000000075D7F9
:2004000001E5D7A2E040FA8FC7E50AA2E092AF7F020206AEE5096007E508D2AF024033E507
:2004200008D2AF020833E5096007E508D2AF02403BE508D2AF02083BE5096007E508D2AF40
:20044000024043E508D2AF020843E5096007E508D2AF02404BE508D2AF02084BE5096007F4
:20046000E508D2AF024053E508D2AF020853E5096007E508D2AF02405BE508D2AF02085B7B
:20048000E5096007E508D2AF024063E508D2AF020863E5096007E508D2AF02406BE508D2EA
:2004A000AF02086BE5096007E508D2AF024073E508D2AF020873E5096007E508D2AF0240B0
:2004C0007BE508D2AF02087BE5096007E508D2AF024083E508D2AF020883E5096007E508E9
:2004E000D2AF02408BE508D2AF02088BE5096007E508D2AF024093E508D2AF020893E5091A
:200500006007E508D2AF02409BE508D2AF02089BE5096007E508D2AF0240A3E508D2AF02FE
:2005200008A3E5096007E508D2AF0240ABE508D2AF0208ABE5096007E508D2AF0240B3E5A0
:2005400008D2AF0208B3E5096007E508D2AF0240BBE508D2AF0208BB0002055874F6120681
:2005600048890C740F550CF50A750B00740B780A12073AEA2400F8EB3480F9E82400E9351F
:200580000BF985C70BA2AFE433F50AC2AFE50CC4540FFAE5C754F84AF5C7740A120789E018
:2005A000FEA3E0FFEE4F602CEEFAEFFB88828983E08C828D83F088828983A3A882A9838C81
:2005C000828D83A3AC82AD83EA24FF1AEB34FFFBEA4B70D8850BC7E50AA2E092AF7F03023E
:2005E00006AE74F7120648ED900980F0ECA3F0A37462F0A37473F0A3E0541FF074091207A8
:2006000089E0F50AA3E0F50BE50A333354FC900985F07406780A12076DE50A900984F0902E
:2006200009867412F0A37442F053D1FE75D601EA906271F0EBA3F0906270E0D2E1F0E0A2DC
:20064000E740FB7F020206AE251DC582C0E0E51E34FFC583C0E0E51DC3958224F910AF083A
:2006600085831E85821D800885831E85821DD2AFCEF0A3E520F0A3780AE608F0A3DEFAEF1A
:20068000F0A3E58124FBF8E608F0A3E608F0A30808E608F0A3E608F0A315811581D0E0FE5C
:2006A000D0E0F815811581E8C0E0EEC0E022851E83851D82E0A3FEE0A3F520780AE0A3F6D0
:2006C00008DFFAE0A3FFE0A3C0E0E0A3C0E0E0A3C0E0E0A3C0E010AF0885821D85831E809A
:2006E0000885821D85831ED2AFD083D08222251DF58210AF08F51D400C151E8008F51D4075
:2007000002151ED2AF851E832200C0D0251D10AF08F51D500C051E8008F51D5002051ED2D0
:20072000AFD0D022251D10AF08F51D400C151E8008F51D4002151ED2AF22700422600D18E1
:20074000C6C333C608C633C6D5E0F4182274028000C0E0F4041206EED0E012077C2275D02D
:200760000075813F751D80751E0102079B600C08C6C313C618C613C6D5E0F422CAC0E0E652
:20078000F0A308DAFAD0E0FA22251DF582E4351EF58322251DFCE4351EFD2212009912073C
:2007A000A100000080FBFFFFFFFFFFFFFFFFFFFFFFFFFFFFFFFFFFFFFFFFFFFFFFFFFFFF37
:2007C000FFFFFFFFFFFFFFFFFFFFFFFFFFFFFFFFFFFFFFFFFFFFFFFFFFFFFFFFFFFFFFFF39
:2007E000FFFFFFFFFFFFFFFFFFFFFFFFFFFFFFFFFFFFFFFFFFFFFFFFFFFFFFFFFFFFFFFF19
:200800008D33FFFF0000005C41414141FFFFFFFFFFFFFFFFFFFFFFFFFFFFFFFFFFFFFFFFCE
:20082000000102030405060708090A0BFFFFFFFF020B5B02199BFFFFFFFFFFFFFFFFFFFF66
:20084000FFFFFFFFFFFFFFFFFFFFFFFFFFFFFFFFFFFFFFFFFFFFFFFFFFFFFF021DA3FFFFF3
:20086000FFFFFFFFFFFFFFFFFFFFFFFFFFFFFFFFFFFFFFFFFFFFFFFFFFFFFFFFFFFFFFFF98
:20088000FFFFFF021A0EFFFFFFFFFFFFFFFFFFFFFFFFFFFFFFFFFFFFFFFFFFFFFFFFFFFF4B
:2008A000FFFFFFFFFFFFFFFFFFFFFFFFFFFFFFFFFFFFFF021807FF0000B400002800280027
:2008C000283075A000A000A000A00000080008E001F000100010001000100010001000503A
:2008E000005000500010001000D0070000000000000F00010005003075070010000100810E
:20090000FF00000000FFBB1FD91FC11FFF02020208025000A0000000E803020CB20100007C
:20092000D7B102DCB10100009B0802E2B1010000B90202DCB10100009C0802F4B1010000CF
:20094000CF0202DCB10100009D0802E6B1010000D10202DCB10100009E0802E8B10800004B
:20096000D20202DCB10100009F0802EAB1010000A008FF0100FF20020CB2010000CEB102C5
:20098000DCB1010000040902ECB1000000000002E0B10300001F033D253D253D253D253DA0
:2009A000253D253D253D253D253D253D253D253D258927A1278327020202020202020202CE
:2009C000010D0000001001020CB2010000D4B102DCB101000045090208B2010000440702CA
:2009E000DCB101000046090206B2010000F0B102DCB101000047090204B2010000EEB10284
:200A0000DCB101000048090202B2010000C7B002DCB101000049090200B2010000FCB10283
:200A2000DCB10100004A0902FEB101000021B102DCB10100004B0902FAB10100008FB0027E
:200A4000DCB10100004C0902F8B101000041B102DCB10100004D0902F6B10100004E091C12
:200A6000020CB2010000D1B102DCB1010000ED091030B0020000750702E0B103000077072B
:200A800002DEB10100004FB102DCB1010000ED091040B0020000760702E0B10300007D07A5
:200AA00002DEB10100005CB1FFFFFFFF000801010003020106000000000000000000000085
:200AC0000000000000000000000000000000000000FFFF0110002000E803E5C754F84405BB
:200AE000F5C779012200000080FB120ADAB90003020B45E479407808B800028004F709D8EC
:200B0000FCE479487802B800028004F709D8FCE490028078C579068002F0A3D8FCD9FA7AC0
:200B2000447B089008B6782579038015E493A3AD82AE838A828B83F0A3AA82AB838D828ED4
:200B400083D8E9D9E77582A77583DE7407120B6D7582E575830A7400120B6D75D000758101
:200B60007F753E80753F02759F00020AEAC09FF59FE473D09F22D083D082C09FE493C0E00D
:200B8000740193C0E0740293F59F22E066701008A3E066700A08A3E066700408A3E0662245
:200BA000E4936670130874019366700C08740293667005087403936622C3E7960809E7968F
:200BC0000809E7960809E79622C3E09608A3E09608A3E09608A3E09622C021C3E096F521E9
:200BE00008A3E096422108A3E096422108A3E09645217001D3D02122C3E49396087401932F
:200C0000960874029396087403939622080808EAC0E0EBC0E086F0E7A4FA180986F0E7A483
:200C20002AFA180986F0E7A42AFA180986F0E7A42AFA1986F0E7A4FBE5F02AFA190886F05F
:200C4000E7A42BFBE5F03AFA190886F0E7A42BFBE5F03AFA18180986F0E7A4C5F02BFBE490
:200C60003AFA1908E7C5F0C6A426F6E5F03BFBE43AFA1886F0E7A4F6E5F00826F6E43B08AB
:200C8000F6E43A08F6D0E0FBD0E0FA226016080808C6C313C618C613C618C613C618C6137C
:200CA000C6D5E0EA227009080808226016181818C6C333C608C633C608C633C608C633C665
:200CC000D5E0EA22E627F60809E637F60809E637F60809E637F622E026F608A3E036F60807
:200CE000A3E036F608A3E036F622E026F008A3E036F008A3E036F008A3E036F022C3E69701
:200D0000F60809E697F60809E697F60809E697F622C3E096F008A3E096F008A3E096F008DC
:200D2000A3E096F022E657F60809E657F60809E657F60809E657F622E056F608A3E056F664
:200D400008A3E056F608A3E056F622E056F008A3E056F008A3E056F008A3E056F022E0F632
:200D600008A3E0F608A3E0F608A3E0F622E6F008A3E6F008A3E6F008A3E6F022E0FAA3E0F6
:200D8000FBA3E0FCA3E0FD22EAF0A3EBF0A3ECF0A3EDF022E0F8A3E0F9A3E0FAA3E0FB224D
:200DA000E8F0A3E9F0A3EAF0A3EBF022CAC0E0E6F0A308DAFAD0E0FA22CAC0E0E0A3C58203
:200DC000CCC582C583CDC583F0A3C582CCC582C583CDC583DAE6D0E0CA22C3E498F8E49949
:200DE000F9120E1B8026C3E49AFAE49BFBE920E7E9120E1BE498F8E499F922C3E498F8E429
:200E000099F9120E1BE498F8E499F9C3E49AFAE49BFB22EB20E7CFE920E7E0B90010BB002F
:200E200008E88AF084F8AAF022E4FBC8FA22EB70227B10C833C8C933C9335007C39AC3DB38
:200E4000F280069A50012ADBEAC833F4C8C933F4C9FA2275F008E4C833C8C933C933C99A45
:200E6000C99B5004C92AC93BD5F0ECFBC833F4C8E4C9FA22600D08C6A2E713C618C613C643
:200E8000D5E0F322600C08C6C313C618C613C6D5E0F422700422600D18C6C333C608C63392
:200EA000C6D5E0F41822253E10AF08F53E400C153F8008F53E4002153FD2AF2200C0D025E3
:200EC0003E10AF08F53E500C053F8008F53E5002053FD2AFD0D022253EF58210AF08F53ED2
:200EE000400C153F8008F53E4002153FD2AF853F8322253EF582E4353FF58322253EFCE408
:200F0000353FFD22E473253EC582C0E0E53F34FFC583C0E0E53EC3958224F810AF08858376
:200F20003F85823E800885833F85823ED2AFCEF0A3E520F0A37821E608F0A3DEFAEFF0A32B
:200F4000E58124FAF8E608F0A3E608F0A3E608F0A30808E608F0A3E608F0A315811581D084
:200F6000E0FED0E0F8158115811581E8C0E0EEC0E022253EC582C0E0E53F34FFC583C0E068
:200F8000E53EC3958224F910AF0885833F85823E800885833F85823ED2AFCEF0A3E520F0F9
:200FA000A37821E608F0A3DEFAEFF0A3E58124FBF8E608F0A3E608F0A30808E608F0A3E624
:200FC00008F0A315811581D0E0FED0E0F815811581E8C0E0EEC0E022853F83853E82E0A381
:200FE000FEE0A3F5207821E0A3F608DFFAE0A3FFE0A3C0E0E0A3C0E0E0A3C0E0E0A3C0E05A
:20100000E0A3C0E010AF0885823E85833F800885823E85833FD2AFD083D082020B73853FDC
:2010200083853E82E0A3FEE0A3F5207821E0A3F608DFFAE0A3FFE0A3C0E0E0A3C0E0E0A391
:20104000C0E0E0A3C0E010AF0885823E85833F800885823E85833FD2AFD083D082227404A6
:201060008006740280027401C0E0F404120ED7D0E0120DAC227404800474028000CCC0E0F3
:20108000EDC0E0E53EC39CCCAD3F50011D10AF068C3E8D3F80068C3E8D3FD2AF120DB9D07B
:2010A000E0FDD0E0FC22D083D082E9C0E0E493A3C386F0C5F095F0F908E493A386F0C5F084
:2010C00095F0700BE493A3C3994005E9048002A3E475F002A42582F582E5F03583F583D061
:2010E000E0F9E493A3C0E0E493C0E022D083D082ECC0E0EDC0E0E493A3FCE493A3FDED4C00
:20110000600D121138EC24FFFCED34FFFD80EFE493A3FCE493A3FDED4C600D121177EC24F3
:20112000FFFCED34FFFD80EFD0E0FDD0E0FCE493A3C0E0E493C0E022C0E0C3E493960874F0
:2011400001939618400FE49366700808740193661870007019A3A3C3E49396087401939666
:2011600018A3A3400DD0E0D0E0D0E0021128A3A3A3A3A3A3D0E022C0E0C0F088F0E4936630
:2011800070080874019366187000A8F0A3A3700BD0F0D0E0D0E0D0E0021128A3A3D0F0D09F
:2011A000E022D083D082ECC0E0EDC0E0EEC0E0EFC0E0E493A3FCE493A3FDE493A3FEE49396
:2011C000A3FFEF4E4D4C601512121EEC24FFFCED34FFFDEE34FFFEEF34FFFF80E5E493A3F9
:2011E000FCE493A3FDE493A3FEE493A3FFEF4E4D4C601512125BEC24FFFCED34FFFDEE3497
:20120000FFFEEF34FFFF80E5D0E0FFD0E0FED0E0FDD0E0FCE493A3C0E0E493C0E022C0E002
:20122000C0F088F0120BF8A8F04007120BA0A8F0701AA3A3A3A3120BF8A8F0A3A3A3A340AE
:2012400013D0F0D0E0D0E0D0E0021208A3A3A3A3A3A3A3A3A3A3D0F0D0E022C0E0C0F088C7
:20126000F0120BA0A8F0A3A3A3A3700BD0F0D0E0D0E0D0E0021208A3A3D0F0D0E022FFFF60
:2012800074F5120F72EAFEEBFFEE2434F8EF3400F988218922EE2435F582EF3400F583E099
:2012A000F8EE2437F582EF3400F583E0F523EC8523F0A4FCAAF08523F0EDA42AFDE82CF8C9
:2012C000E43DF97A257B00120E1BEA852182852283F0F8740758F97401B900028004C33305
:2012E000D9FCFAE8131313541FF8EE28F8EF3400F9E8245DF582E93400F583E05A6008EE64
:201300002434F582EF802CEE2434F582EF3400F583E0C0E0EE2436F582EF3400F583E0F55C
:20132000F0D0E084A8F0EE28F8EF3400F9E82438F582E93400F583E0F97F0402101E74F582
:20134000120F72EAFEEBFFEE2434F582EF3400F583E0C0E0EE2435F582EF3400F583D0E047
:20136000F08E828F83A3A3A3A3A3A3A3C082C0838E828F83A3A3A3A3A3E0F8A3E0F9D08369
:20138000D082E0C398F521A3E099F522EE247FF582EF3400F583E064017069EE2480F582AD
:2013A000EF3400F583E0F8A3E0F98E828F83A3A3A3A3A3A3A3E0FCA3E0FD8E828F83A3A3E3
:2013C000A3A3A3E0FAA3E0FBC3EA9CEB9D5010C3EC98ED99402EC3EA98EB995027800EC3CF
:2013E000EA98EB994007C3EC98ED9940177CE27D04EEFAEFFB12249BEE247FF582EF3400CF
:20140000F583E4F0EE2434F8EF3400F9E8FCE9FDEE2435F582EF3400F583E0F8EE2437F5ED
:2014200082EF3400F583E0F523E5218523F0A4F521AAF08523F0E522A42AF522E82521F8FB
:20144000E43522F97A257B00120E1BEA8C828D83F0F8740758F97401B900028004C333D9C4
:20146000FCFAE8131313541FF8EE28F8EF3400F9E8245DF582E93400F583E05A6008EE2497
:2014800034F582EF802CEE2434F582EF3400F583E0C0E0EE2436F582EF3400F583E0F5F00F
:2014A000D0E084A8F0EE28F8EF3400F9E82438F582E93400F583E0F9121D95021339C082B9
:2014C000C083853E82853F83E0F8A3E0F9C3EA9CEB9D5010C3EC98ED99401BC3EA98EB99C7
:2014E0005014800EC3EA98EB994007C3EC98ED994004790180027900D083D08222EAC39C54
:20150000FAEB9DFB2274EF120F729003A8E064086005E06407702A9061C8E060249003D6DF
:20152000E0F4601DE0F875F003A4C8AAF02AF974D828FE740339FF8E828F83A3A3A3E07075
:2015400003021635906060E0C0E0EE2468F582EF3400F583D0E0F075254B75260575210024
:20156000752200E5D914F523E5D95403F527601774036527605CE5236010EE2467F582EF2C
:201580003400F583E0700302161A900546E06401602AEE2482F582EF3400F583E06004780E
:2015A0000480027800852321E521C398FA95E0FB1223698A218B22EA4522700512267B80AA
:2015C00074EE2482F582EF3400F583E070048A258B26E5236012852582852683F524E5D992
:2015E000F0A31524E52470F6EE2482F582EF3400F583E0604474FC2523F523782512106295
:20160000AC23A927EEFAEFFB1225377402120EBCE97026AA21AB22122975793D8E828F83FA
:20162000A3A3A3A3E0FA7B00122243EEFAEFFB1224B312254979008074740365276056856C
:201640002329752A007829121062AC25AD26AA21AB221225137402120EBCEE2468F582EFC2
:201660003400F583E064807004747F8001E0F5257825121066E527F5257825121066A923DC
:20168000AC21AD229003D6E0FA7B0012220D7402120EBC80139003A8E06408600BAC25AD5A
:2016A00026EEFAEFFB1225A312268779017F0A02101E74F5120F7274FC120EA6EAFEEBFF62
:2016C0008921A2AFE433F522C2AF806AEE2463F8EF3400F97A007B00A2AFE433F523C2AF17
:2016E00088828983E0FCA3E0FDEC4D603A88828983E0FAA3E0FB8A828B83E0FCA3E0FD8839
:20170000828983ECF0A3EDF08A828B83E4F0A3F088828983E0FCA3E0FDEC4D700A888289A6
:2017200083A3A3E4F0A3F0E523A2E092AF1229759004E9E004F0EE2463F582EF3400F58326
:20174000E0F8A3E0F9E849603DEE2463F582EF3400F583E02402FAA3E03400FBEA2402F529
:2017600023EB3400F52478231210628A828B83E0FCA3E0F9EEFAEFFB1224D77402120EBC4C
:20178000E970030216CC9004E9E060639004EAE0F89004E9E0C398500C7402652170509033
:2017A00004EBE0604A8E828F83A3A3A3A3E0853E82853F83F0A3E4F09004E9E0F874021252
:2017C0000EF2E8F0A3E4F09004E9E0F89004E8E028F07402120EF2AC82AD83853E82853F02
:2017E00083AA82AB8379011222139004E9E4F0E522A2E092AF7404120EBC021339FFFFFF91
:201800008540878541C622C0E0C0D0E8C0E0E9C0E0EAC0E0EBC0E0ECC0E0EDC0E0EEC0E0D1
:20182000C021C022C023C024C082C083C0F0A2AFE433FEC2AF759B00906182E0A2E05012CB
:20184000E591A2E0500C7591FE740165407003121505E0A2E55051E591A2E5504B7591DFF2
:201860009003A8E064076005E06408702374016540703579019003D6E0FA75F003A4CAA8A4
:20188000F028FB74D82AFA74033BFB1216B28018E0640D70139003CAE004F064287002E4BF
:2018A000F07A00E0F912268D906182E0A2E6400302194EE591A2E6400302194E7591BF909A
:2018C00003A8E0640570081225CD1225D980031225D375400012262DE99003A9F079001241
:2018E000262112240B7A017B009003A7E0F912293F907803E06442705590054AE014F07054
:201900004DC2AF121906007849D0E0F618D0E0F6E59F540770057522FF800375227FC4C0AC
:20192000E07848E6F52108E65522F522740B7821120E84D0E02521F8906270E0A2E740F8E2
:20194000E8C333906272F0906270E0D2E0F0906181E0A2E35009E5E9A2E3500375E9F7A3A3
:20196000E0A2E75009E591A2E7500375917FEEA2E092AFD0F0D083D082D024D023D022D00F
:2019800021D0E0FED0E0FDD0E0FCD0E0FBD0E0FAD0E0F9D0E0F8D0D0D0E032C0E0C0D0C007
:2019A00082C083906183E0A2E05009E5BFA2E0500375BFFEE0A2E15009E5BFA2E1500375DD
:2019C000BFFDE0A2E25009E5BFA2E2500375BFFBE0A2E35009E5BFA2E3500375BFF7E0A2FD
:2019E000E45009E5BFA2E4500375BFEFE0A2E55009E5BFA2E5500375BFDFE0A2E65009E513
:201A0000BFA2E6500375BFBFD083D0828088C0E0C0D0E8C0E0E9C0E0EAC0E0EBC0E0ECC08A
:201A2000E0EDC0E0C0F0E5A7A2E6500FE5A1A2E6500953A7BF75A1BF121A73E5A7A2E5501F
:201A40000CE5A1A2E5500653A7DF75A1DFE5A7A2E15009E5A1A2E1500375A1FDE5A7A2E262
:201A6000500CE5A1A2E2500653A7FB75A1FBD0F002198474F8120F727540019003A8E06411
:201A80000670151225678A828B83A3A3A3A3A3A3E0FAA3E0FB1225BBA2AFE433FED2AF9070
:201AA00003AEE0640170187A207B009003A7E0F91229E17A207B009003A7E0F9122945902C
:201AC0006182E0D2E6F0900547E0602185C64180169003ADE064017008E5C654F84405F50A
:201AE000C653BEFC1218007401654060E4EEA2E092AF7F0102101EFF8E428F4385824785B6
:201B00008346853E82853F83E0CEA3E0CF854782854683EBC9EAC8EDCBECCA75F010C3E8E0
:201B200033C8E933C9EA33CAEB33CBC3EA9EF545EB9FF544B35004AB44AA45EC33CCED33BD
:201B4000CDD5F0DAAE42AF432274ED120F728A218B228C238D247413120EF27825120D5EB6
:201B600078217925120BB9752901752AC8752B00752C00501278217925120CFD7829792122
:201B8000120BB95016801078257921120CFD78297925120BB940047901800279007F0C02CC
:201BA000101E74ED120F728A218B228C238D247413120EF27825120D5E78257921120BB98B
:201BC000401178217925120CFDAA21AB22AC23AD248022752900752A00752B00752C017891
:201BE000297925120CFD78297921120CC4AA29AB2AAC2BAD2C80A68A828B837521FF752222
:201C0000FF7523FF7524007821120D4B7F0402101E74F5120F728C828D837821120D5E8A25
:201C2000828B837821120D11EA2404F8EB3400F98C828D83A3A3A3A3E0FCA3E0FD88828990
:201C400083C3E09CF0A3E09DF088828983C3E09420A3E0944E40268A828B837521FF752244
:201C6000FF7523FF7524FF7821120CEA8A828B83A3A3A3A3E02420F0A3E0344EF0021BF7D2
:201C800074F5120F72E9FE9004FDE0FAA3E0FBEEC333F8E433F9741128F58274B139F58392
:201CA000E02AF521A3E03BF52278211210627A407B427C0F7D00121AF87402120EBC8A2172
:201CC0008B228C238D2474107821120C8CAA21AB227F0402101E74F1120F728A258B268C01
:201CE000278D28740F120EF2E0FAA3E0FB7411120EF2E0F521A3E0F5227821121062EA24C9
:201D000001F521EB3400F522E4F523F52478257921120C0C75217175220278257921120C0B
:201D20000CAA25AB26AC27AD28121AF87402120EBC8B22EA452260047A0180027A00EC2AEA
:201D4000FCED3400FD7413120EF2E0F8A3E0F9E8FEE9FFECF8EDF97A717B02120E1B882198
:201D600089228E828F837821120D6DECF8EDF97A717B02120E1B8A218B2274057821120E7A
:201D8000938E828F83A3A3A3A3E521F0A3E522F07F0802101EC082C083E9906000F0D0831A
:201DA000D08222C0E0C0D0E8C0E0E9C0E0A9A8D2AFC2C7E9A2E7E433F8E9A2E792AFD0E02F
:201DC000F9D0E0F8D0D0D0E032C2AF02000022120B7648FF05120B76BFFF05120B76F7DEAE
:201DE00007120B76FCDE07120B7697D507120B76AED507120B76DFD507120B761AD607125B
:201E00000B7644D607120B766ED607120B7685D607120B769CD607120B76B3D607120B768B
:201E2000DCD607120B76EFD607120B7605D707120B7618D707120B762E8B07120B76328CE7
:201E400007120B766A8C07120B768D8C07120B76988C07120B76BB8C07120B76CA8D071296
:201E60000B769F8E07120B761A8F07120B76A28F07120B76DD8F07120B76149007120B76C8
:201E8000A29007120B767B9107120B76DB9107120B76E69107120B76659207120B7668922E
:201EA00007120B766B9207120B76FA9207120B76FD9207120B762D9307120B765793071245
:201EC0000B76459407120B76F79407120B76ADB207120B76D5B207120B7603B307120B767F
:201EE0003AB307120B7698B307120B76E3B307120B762EB407120B766EB407120B76B4B4A6
:201F000007120B76E2B407120B769FB507120B76A9B507120B76B6B507120B76E9B5071255
:201F20000B76B5B607120B76C1B607120B76D9B607120B76E3B607120B76DEDD07120B7659
:201F4000F6DD07120B760EDE07120B7652E006120B762EE106120B7692E206120B76E9E243
:201F600006120B766AE306120B765AE406120B76A7E406120B762DE506120B765FE50612E0
:201F80000B7673E706120B76B5E706120B76D3E706120B7656E806120B762AE906120B76C2
:201FA000F2E906120B76689507120B763B9607120B76E49607120B76379707120B76E797B1
:201FC00007120B76739807120B765F9907120B768E9907120B76A19A07120B76E99A0712FE
:201FE0000B76BE9B07120B76FA9B07120B76169C07120B76F0BF07120B7616C007120B7639
:2020000032C107120B763CC107120B7671C207120B7669C307120B769AA807120B76CAA9BA
:2020200007120B76FDA907120B7647AA07120B760EAC07120B76659006120B76CF900612E2
:202040000B762E9206120B763E9206120B766B9206120B76C79206120B76CE9306120B76BB
:20206000989406120B76F89506120B76419606120B768E9606120B76B49606120B76C2980B
:2020800006120B76C79806120B76CC9A06120B76199B06120B768C9B06120B76BF9B061231
:2020A0000B76619C06120B760A9D06120B76429D06120B76459D06120B768D9D06120B7613
:2020C000CD9D06120B7664CC07120B767CCC07120B76C4CC07120B76DACC07120B7621CDF9
:2020E00007120B7635CE07120B76C2CE07120B760EB205120B7649B205120B768EB205123D
:202100000B764EB305120B76D4B305120B7639B405120B7665B405120B769EB405120B7666
:20212000DCB605120B76C0B805120B76A6BA05120B76E9BB05120B7637BE05120B7649BF9C
:2021400005120B7694C005120B76A4C105120B76C1C105120B76FCC105120B761EC2051298
:202160000B7681C205120B7642C705120B76D7C705120B7629C805120B7647C805120B76FC
:20218000A1C805120B76A0C905120B7624CA05120B76C1AD07120B76CBAD07120B760EAEE1
:2021A00007120B7629AE07120B76B9AE07120B76E1AE07120B761EAF07120B7655AF071266
:2021C0000B767EAF07120B76F3AF07120B7608B007120B761DB007120B765EB007120B761A
:2021E00098B007120B76C4B007120B76F2B007120B763DB107120B76E7B107120B7630B217
:2022000007120B765AB207120B7685B207120B76CEFE06120B7630C706120B767EC806125A
:202220000B765EC906120B767DC906120B76FAC906120B763DCA06120B7693CB06120B768B
:2022400054CC06120B76DBCE06120B767CCF06120B7672D006120B766FD106120B76C9D250
:2022600006120B7654D306120B7682DA07120B76EBDA07120B763FDB07120B7666DB0712A2
:202280000B7697DB07120B766AB707120B76D7B707120B761EB807120B7636B907120B76D5
:2022A00032BA07120B7615BB07120B76DFF605120B7621F705120B76F3F705120B76CCF8CB
:2022C00005120B76C6F905120B76A8FA05120B7611FB05120B76C7FB05120B763BFC051289
:2022E0000B76A7FC05120B76D0FC05120B764AFD05120B76E3FD05120B7648FE05120B7689
:202300005DFE05120B76A3FE05120B76BCFE05120B7621FF05120B7624FF05120B7691C972
:2023200007120B76B9C907120B76F7C907120B76B5CA07120B761CCB07120B7638CB0712D7
:202340000B7660CB07120B7690CB07120B769FCB07120B761CCC07120B76008006120B76A3
:20236000DE8106120B76108406120B764C8406120B76798406120B76638506120B76AE8585
:2023800006120B76F98506120B762E8606120B767C8606120B76AB8606120B76CE8606126F
:2023A0000B761B8706120B76A08706120B76BA8906120B76F98B06120B763A8C06120B7649
:2023C000DC8D06120B761D8E06120B76908E06120B76DC8E06120B768A8F06120B7616BA7B
:2023E00006120B7614BB06120B76ADC106120B76CEC306120B7699C506120B7601C70612D4
:202400000B768BCA05120B763ACB05120B7680CB05120B76B6CC05120B7613CD05120B763C
:2024200041CD05120B76D7CE05120B7651CF05120B76CCCF05120B7626D105120B7686D2E7
:2024400005120B768CD305120B76EDD405120B7606D505120B7664D505120B7652D6051211
:202460000B7685D605120B76F5D605120B766FD705120B76B9D705120B7683D805120B768C
:2024800058D905120B7637DA05120B76C2DA05120B7630DB05120B76A4DB05120B76CFDB32
:2024A00005120B768EDC05120B76F3DD05120B7610DE05120B762FDE05120B7620DF0512D9
:2024C0000B7645DF05120B766FDF05120B76EADF05120B7644E005120B76ADE105120B7696
:2024E0005BE205120B769CE205120B76BA9E06120B76089F06120B76149F06120B76F29FE3
:2025000006120B7623A006120B7654A006120B76D4A006120B760CA106120B765EA10612CF
:202520000B769BA106120B76B8A306120B76DEA506120B76C9A706120B76B3A906120B7637
:20254000F63F00120B76CCE205120B76FCE205120B76D5E905120B765AEB05120B7657F17C
:2025600005120B763FF205120B767CF205120B769FF205120B76D0F205120B76D9F205128F
:202580000B76E3F205120B76D1F305120B76C7F405120B76402A00120B763F2E00120B76A1
:2025A000452E00120B76803500120B76993A00120B7673C307120B766DC407120B76E1C427
:2025C00007120B761FC507120B7693C507120B760CC607120B7615C607120B7621C6071210
:2025E0000B7636C607120B7674C607120B768AC607120B76BAC607120B76C7C607120B76C5
:20260000E1C607120B7620C707120B765EC707120B76C3C707120B76D8C707120B76E3C732
:2026200007120B76F0C707120B7607C807120B7615C807120B7620C807120B762CC8071240
:202640000B763BC807120B7646C807120B7663C807120B7673C807120B7689C807120B762F
:20266000A5C807120B76B0C807120B76C5C807120B76D9C807120B763AC907120B7640C939
:2026800007120B7646C907120B764CC907120B765EC907120B7693AC06120B761FAD0612CB
:2026A0000B767EAE06120B769FB006120B768BB106120B76C0B106120B76E2B106120B76E1
:2026C00091B206120B7689B406120B76B2B406120B7644B506120B7676B506120B7683B5BB
:2026E00006120B76DAB506120B7600B606120B766DB806120B7670B906120B76C8B90612B1
:202700000B7634EC06120B763EEC06120B7660EC06120B766CEC06120B7605EE06120B765A
:2027200034EE06120B7650EF06120B76A9EF06120B761DF106120B768AF106120B76C5F164
:2027400006120B7604F206120B76BDF406120B76D7F406120B7663F506120B7671F5061234
:202760000B76CAF506120B76D8F506120B764BF606120B76AFF606120B76F9F606120B767A
:20278000008007120B76228007120B76488207120B765D8507120B76758607120B762887BF
:2027A00007120B760A8807120B763FD707120B7664D707120B76D6D707120B7682F70612F6
:2027C0000B768BF706120B7694F706120B766BF806120B761CFA06120B7652FA06120B76A9
:2027E0008CFA06120B76C2FA06120B76FCFA06120B7630FB06120B765CFB06120B76A5FB82
:2028000006120B76DFFB06120B7628FC06120B7680FC06120B76B5FC06120B7610FD06126B
:202820000B764AFD06120B769BFD06120B76D1FD06120B760BFE06120B762EFE06120B7638
:20284000BDDF07120B76C7DF07120B76D7DF07120B76ECCE07120B7611CF07120B76AF3FF6
:2028600000120B76E7FF06120B76F3FF06120B76FFDF07120B764F3F00120B765F3F001272
:202880000B76683F00120B76AC3F00120B76DDDB07120B7661DC07120B76C7DC07120B7699
:2028A0008B9C07120B76C89C07120B76E49C07120B76B79D07120B769F9E07120B7600A0DA
:2028C00007120B766CA007120B764CA107120B76D4A107120B76E1A207120B7656DF0712B7
:2028E0000B7668DF07120B7625A307120B762FA307120B766FA307120B76B8A307120B7607
:20290000F2A307120B7648A407120B7667A407120B7670A407120B76C1A407120B76EAA422
:2029200007120B76F4A407120B7665A507120B76F3A507120B7648A607120B7676A6071238
:202940000B76F2A607120B7635A707120B7672A707120B7684A707120B76A0A707120B76F5
:20296000A9A707120B766EA807120B76FFDE07120B76E4D807120B7635D907120B76BED9B1
:2029800007120B7624DA07120B7655D107120B767FD107120B7648D207120B7623D3071298
:2029A0000B76E0DC07120B7695D307120B76CBD307120B7604D407120B765DD507120B76C8
:2029C000D7BB07120B76ECBB07120B769FBC07120B76DFBC07120B76F8BC07120B762BBD2A
:2029E00007120B7678BD07120B76ACBD07120B76EEBD07120B76D5D306120B7674D7061282
:202A00000B76CED706120B76EDD706120B764AD806120B76B8D906120B76A3DA06120B769F
:202A2000D8DE06120B76A2DF06120B7691DF07120B76E1DF07FFFFFFFFFFFFFFFFFFFFFF67
:202A400074F4120F06907803E06442705590054AE014F0704DC2AF122A5A007849D0E0F6A3
:202A600018D0E0F6E59F540770057522FF800375227FC4C0E07848E6F52108E65522F52279
:202A8000740B7821120E84D0E02521F8906270E0A2E740F8E8C333906272F0906270E0D243
:202AA000E0F09003D6E0F47003022E3AE0F875F003A4C8AAF02AF974D828FE740339FFEEB4
:202AC0002401F582EF3401F583E0F8A3E0F9E849601EEE2401F582EF3401F583E0FAA3E038
:202AE000FBEE2400F582EF3401F583E0F912293F8E828F83A3A3A3A3A3A3A3E0F8A3E0F978
:202B00008E828F83A3A3A3A3A3E8F0A3E9F0906054E09003AFF0906055E09003B0F0906072
:202B200056E09003B1F0906057E09003B2F0906058E09003B3F0906059E09003B4F0906021
:202B40005AE09003B5F090605BE09003B6F090605CE0FC9003B7F090605DE0FB9003B8F0DA
:202B600090605EE0FD9003B9F090605FE0FA9003BAF09003B5E08C212521F8E43400F98DD7
:202B800021E82521F8E93400F98B21E82521F8E93400F98A21E82521FAE93400FBEE24F6FD
:202BA000F582EF3400F583E02AF0A3E03BF08C21EE24F8F582EF3400F583E02521F0A3E0F9
:202BC0003400F0EE24FAF582EF3400F583E02401F0A3E03400F0EE24FEF582EF3400F583F5
:202BE000E0F8A3E0F9E8496042906000E0C333FCE433FDE82CF582E93DF583E02AF0A3E032
:202C00003BF0906000E0FA9003B7E0FCEAC333FAE433FBE82AF8E93BF9E8244AF582E9349C
:202C200000F583E02CF0A3E03400F09003B5E070119003B8E0700BA3E07007A3E070030238
:202C40002D378E828F83A3A3A3A3A3E0F8A3E0F9EE240DF582EF3400F583E028F8A3E0397E
:202C6000F9EE240BF582EF3400F583E8F0A3E9F0EE240FF582EF3400F583E4F0EE241CF5AE
:202C800082EF3400F583E06401701EEE2420F582EF3400F583E0F8A3E0F9EE241DF582EF17
:202CA0003400F583E8F0A3E9F09003B0E06052EE241CF582EF3400F5837401F0EE2469F52A
:202CC00082EF3400F583E07038EE2473F582EF3400F583E0702BEE247FF582EF3400F5839A
:202CE000E0701EEE2420F582EF3400F583E0F8A3E0F9EE241DF582EF3400F583E8F0A3E929
:202D0000F0906062E07003022DEA8E828F83E0F8A3E0F9E82406FCE93400FDE82402FAE976
:202D20003400FB1225DF8E828F83E0F8A3E0C82412F582E8022DF09003B7E0603AEE240F70
:202D4000F582EF3400F583E4F0EE241CF582EF3400F583E064017040EE2420F582EF34008C
:202D6000F583E0F8A3E0F9EE241DF582EF3400F583E8F0A3E98020EE24FCF582EF3400F5A5
:202D800083E02401F0A3E03400F0EE241DF582EF3400F583E4F0A3F0EE240BF582EF3400B5
:202DA000F583E0F8A3E0F98E828F83A3A3A3A3A3E0687003A3E0696003022CA9EE240FF5FF
:202DC00082EF3400F583E060128E828F83A3A3A3A3A3E064057002A3E06004790880027915
:202DE0003EEEFAEFFB1224B98050EE241DF582EF3400F583E4F0A3F09061C8E06006121536
:202E000005E970F48E828F83A3A3A3E0602C9061C8E070069060607480F0EEFAEFFB12259D
:202E2000A9E9640160147902EEFAEFFB1216B212259DE9640160031225497F04020FD8533C
:202E4000BFEF020B7374EC120F069003D6E0F875F003A4C8AAF02AF974D828FE740339FFCA
:202E60009061D0E07013EE2463F582EF3400F583E0F8A3E0F9E849600FEE241DF582EF34EA
:202E800000F583E4F0A38053EE2469F582EF3400F583E07047EE2473F582EF3400F583E0D5
:202EA000703AEE247FF582EF3400F583E0702DEE241CF582EF3400F583E06401701EEE2423
:202EC00020F582EF3400F583E0F8A3E0F9EE241DF582EF3400F583E8F0A3E9F08E828F83B5
:202EE000A3A3A3A3A3E0F8A3E0F9EE241DF582EF3400F583E028F8A3E039F9E8240108E95B
:202F00003400F9EE2407F523EF3400F524852382F583E8F0A3E9F0EE240BF582EF3400F575
:202F200083C3E098A3E09950358E828F83A3A3A3A3A3A3A3C082C083EE240BF582EF34005F
:202F4000F583E0F8A3E0F9D083D082E0C398F8A3E099F9C3E894AAE994105035803BEE24F0
:202F60000BF582EF3400F583C082C0838E828F83A3A3A3A3A3A3A3E0F8A3E0F9D083D0821F
:202F8000E0C398F8A3E099F9C3E894ABE9941050089004EDE064017030EE241DF582EF34EB
:202FA00000F583E4F0A3F08E828F83A3A3A3A3A3E02401F8A3E03400F98E828F83A3A3A329
:202FC000A3A3A3A3E8F0A3E9F0EE2473F582EF3400F583E064016003023240EE2474F58261
:202FE000EF3400F5831210798E828F83A3A3A3A3A3A3A3E0FCA3E0FD8E828F83A3A3A3A3FA
:20300000A3E0FAA3E0FB1214BE7402120EBCE97003023240EE2474F8EF3400F988218922C1
:203020008882F583E0F8A3E0F9852382852483E8F0A3E9F0EE2476FCEF3400FDEEFAEFFB9A
:203040001224C5EE247BF582EF3400F583E0F8A3E0F9EE2420F582EF3400F583E8F0A3E9DA
:20306000F0EE241CF582EF3400F583E4F0EE241DF582EF3400F583E4F0A3F0EE240FF5820C
:20308000EF3400F5837401F0852382852483E0F8A3E0F9EE240DF582EF3400F583E028F855
:2030A000A3E039F9EE240BF582EF3400F583E8F0A3E9F08E828F83A3A3A3A3A3E0FCA3E028
:2030C000FD852182852283E0FAA3E0FB1214FD8A218B22EE242EF582EF3400F583E0FAA3FF
:2030E000E0FBE4F523F5248A258B26F527F52878217925120C0CEE2477F582EF3400F5834B
:20310000E0F525A3E0F52678217925120CC4EE2479F582EF3400F583E06A7003A3E06B7046
:2031200044EE247DF582EF3400F583E0F8A3E0F9EE2432F582EF3400F583E0687003A3E0C2
:20314000697022EE247BF582EF3400F583E0F8A3E0F9EE2430F582EF3400F583E068700372
:20316000A3E0696052EE247DF582EF3400F583E0F525A3E0F52674047825120E8478251210
:203180001062EE247BF582EF3400F583121079EE2479F582EF3400F583E0FCA3E0C313FDB4
:2031A000EC13FC8E828F83A3A3A3A3E0FA7B001222497404120EBCEE2476F582EF3400F529
:2031C00083E0C0E0EE242BF582EF3400F583D0E0F0EE2479F582EF3400F583E0F8A3E0F90C
:2031E000EE242EF582EF3400F583E8F0A3E9F0EE247BF582EF3400F583E0F8A3E0F9EE2424
:2032000030F582EF3400F583E8F0A3E9F0EE247DF582EF3400F583E0F8A3E0F9EE2432F5EA
:2032200082EF3400F583E8F0A3E9F0EEFAEFFB1224CBEE2473F582EF3400F583E4F0801649
:20324000EE242EF582EF3400F583E0F521A3E0F522E4F523F524EE2418F582EF3400F5833B
:203260007821120B8B701EEE241FF582EF3400F583E0F8EE241DF582EF3400F583E068706B
:2032800002A3E06039EE2412F525EF3400F5267825121062EE2410F582EF3400F58312101D
:2032A00079EE241DF582EF3400F583121079AA21AB22AC23AD24121CD67406120EBCEE2415
:2032C00018F582EF3400F5837821120D6DEE241DF582EF3400F583E0C0E0EE241FF582EF47
:2032E0003400F583D0E0F0EE2412FCEF3400FD8E828F83E02402FAA3E03400FB121C11909F
:203300006062E060147C707DB18E828F83E02402FAA3E03400FB121C118E828F83E0F8A3CD
:20332000E0F988828983A3A3E82408FCE93400FD7406120DB98E828F83E02402F8A3E03405
:2033400000F9E8FAE9FBEE241DF582EF3400F583E0F529A3E0F52AE4F52BF52C752501F518
:2033600026F527F52878297925120CC478297921120C0C8A828B837829120CEA8A828B838B
:203380007525FF7526FF7527FF7825120D4B9004E7E0640160030234CD79011226218E824F
:2033A0008F83E0FAA3E0FB7521FF7522FF7523FF7524FFEA240EF582EB3400F58378211274
:2033C0000D6DEA2412F8EB3400F9E8FAE9FBEE2412F582EF3400F5837821120D5EE52175B6
:2033E000F0E2A4C521A8F075F004A428F875F0E2E522A428F5228A828B83E02521F0A3E0C8
:203400003522F0EE2416F582EF3400F583E0F521A3E0F52274047821120E84E5212401F8C3
:20342000E5223400F98A828B83E028F0A3E039F0906062E08E828F837003023541E0F8A3E0
:20344000E0C82412F582E83400F583E02410F0A3E03401F0EE240FF582EF3400F583E06064
:2034600032EE242BF582EF3400F583E0F875F071A4C8AAF075F002A42AF98E828F83E0FAED
:20348000A3E0CA2412F582EA3400F583E028F0A3E039F08E828F83E0F8A3E0C82414F58204
:2034A000E83400F5837410F08E828F83E0F8A3E0C82416F582E83400F583744DF0A374248E
:2034C000F0EEFAEFFB12133E7900023A9475255075260075270078257921120BB94003020B
:2034E000339EEE241DF582EF3400F583E0F8A3E0F9E849600302339E782112105EEEFAEF0F
:20350000FB1224D17404120EBCE96401600302339EEE240FF582EF3400F583E060128E823C
:203520008F83A3A3A3A3A3E064057002A3E0600479088002793EEEFAEFFB1224B979018033
:2035400089E0F8A3E0C82412F582E83400F583E02410F8A3E034FFF97A717B02120E1B8898
:20356000218922EE242EF582EF3400F583E0F8A3E0F9C3E52198E52299500302345480B0CB
:2035800074EC120F06EAFEEBFF8C828D83E0F8A3858221858322603B1470030237681470A0
:2035A00003023A5D1470030237E424FD70030238FD147003023A9414700302395424FE7001
:2035C000030239021470030239441470030239E0023A83EE2476F529EF3400F52AE08529CE
:2035E00082852A83F0852182852283A3858221858322EE2477F527EF3400F5287902AC21B3
:20360000AD22AA27FB1224E38A218B22EE2479F525EF3400F5267902AC21AD22AA25FB12C8
:2036200024E38A218B227902AC21AD22EE247BFAEF3400FB1224E38A218B22EE247DF52357
:20364000EF3400F5247902AC21AD22AA23FB1224E38A218B22852982852A83E0C333F08531
:203660002782852883E0F8A3E0F9E8C333F8E933F9852782852883E8F0A3E9F085258285CF
:203680002683E0F8A3E0F9E8C333F8E933F9852582852683E8F0A3E9F0852382852483E05E
:2036A000F525A3E0F52674047825120E93852382852483E525F0A3E526F0EE2474F523EF0F
:2036C0003400F5247902AC21AD22AA23FB1224E3852382852483C082C0838E828F83A3A362
:2036E000A3A3A3E0F8A3E0F9D083D082E0C398F8A3E099F9C3E894FFE9947F40030237BE2C
:20370000EE247DF582EF3400F583E0F521A3E0F522E4F523F524EE247BF582EF3400F583C4
:20372000E02401F525A3E03400F526E4F527F528EE2479F582EF3400F583E0F8A3E0F9E8A2
:20374000C333F8E933F98829892AE4F52BF52C78257929120C0C78217925120BB9400479AA
:203760003B805DEE24738062EE2480F523EF3400F5247402C0E07905AC21AD227AE27B04D9
:203780001224E3EAFCEBFDD0E0F9AA23AB241224E3852382852483C082C0838E828F83A344
:2037A000A3A3A3A3E0F8A3E0F9D083D082E0C398F8A3E099F9C3E894FFE9947F4009792818
:2037C000EEFAEFFB023A7EEE247FF582EF3400F5837401F0EE241DF582EF3400F583E4F040
:2037E000A3023950EE24E1F582EF3400F583E07039EEF8EFF97ABB7B038A828B83A3E0C02F
:20380000E0E824E2F582E93400F583D0E0F08A828B83A3AA82AB8388828983A3A882A98308
:20382000EA64C37003EB640370CFEE24E2F582EF3400F583E0A2E0EE401124DDF582EF3431
:2038400000F583741AF0790D023A572462F582EF3400F583E4F0EE2467F582EF3400F58362
:20386000E4F0EE24E0F582EF3400F5837401F07908AC21AD22EE249BFAEF3400FB1224E310
:203880008A218B227902AC21AD22EE24A3FAEF3400FB1224E38A218B22EE2493F523EF349B
:2038A00000F5247908AC21AD22AA23FB1224E38A218B227908AA23AB241224E9EE2487F5CF
:2038C00023EF3400F5247904AC21AD22AA23FB1224E37904AA23AB241224E9EE248BFAEFD1
:2038E0003400FB1224FBEE2483FAEF3400FB1225019003AAE04480F07904023A57EE24DEB2
:203900008045EE2462F582EF3400F583E4F0EE2467F582EF3400F583E4F0EE24D2F582EFDF
:203920003400F583E4F0EE24DCF582EF3400F5837401F0EE24D3F582EF3400F583E4F0795E
:203940000B023A91EE24DFF582EF3400F5837401F0023A94EEF8EFF97ABB7B038A828B83BC
:20396000A3E0C0E0E824E2F582E93400F583D0E0F08A828B83A3AA82AB8388828983A3A812
:2039800082A983EA64C37003EB640370CFEEF8EFF97ABB7B038A828B83A3E0FC852182859D
:2039A0002283E05CC0E0E824E2F582E93400F583D0E0F0852182852283A3858221858322A5
:2039C0008A828B83A3AA82AB8388828983A3A882A983EA64C37003EB640370B97909807749
:2039E000EE24EAF582EF3400F583E064017003023A83852182852283E0C0E0EE24EDF582FA
:203A0000EF3400F583D0E0F0852182852283A38582218583227402C0E0F9AC21AD22EE2467
:203A2000EEFAEF3400FB1224E3EAFCEBFDD0E0F9EE24F0FAEF3400FB1224E3EE24EAF5824A
:203A4000EF3400F5837401F0EE24ECF582EF3400F583E0703F790CEEFAEFFB8034EE24F4B6
:203A6000F8EF3400F9E088828983F0EE24F3F582EF3400F5837401F088828983E0F91224AB
:203A8000B98011EE24F5F582EF3400F583E8F079071224897F0C020FD874F6120F06EAFEBF
:203AA000EBFF023CDFEEFAEFFB12247D023F2BEE2469F582EF3400F583E06401703E9003FB
:203AC000B2E07003023DBBEEFAEFFB12248FEE24A3F521EF3400F5227821121062EE249B81
:203AE000FCEF3400FD8E828F83A3A3A3A3E0FA7B001222557402120EBC023CDFEEFAEFFBDD
:203B0000122453023F2BEE2469F582EF3400F583E0640170559003B2E06031EE2482F58258
:203B2000EF3400F5837401F0EE24D4F582EF3400F583E4F0A3F0A3F0A3F0EE24D8F582EFB0
:203B40003400F583E4F0A3F0A3F0A3F0EE24DEF582EF3400F583E064016003023DBB790609
:203B6000EEFAEFFB122495023CDFEE24D2F582EF3400F583E06401702AEEFAEFFB12245955
:203B8000E964016003023F48EE24DEF582EF3400F583E4F0EE2469F582EF3400F583740113
:203BA000023F36EE24D3F582EF3400F583E07003023F48EE24B2F521EF3400F522782112FC
:203BC0001062EE248BFCEF3400FDEE24C2FAEF3400FB1225077402120EBCEE24D2F582EFF4
:203BE0003400F5837401023CA7EE2469F582EF3400F583E064016003023CAA9003B2E0700D
:203C000003023DBBEE2420F582EF3400F583E0F8A3E0F9EE241DF582EF3400F583E8F0A353
:203C2000E9F0EEFAEFFB12248FEE2462F582EF3400F5837401F0EE2467F582EF3400F5839E
:203C40007401F0EE24DCF582EF3400F583E06401701379008E828F83A3A3A3A3E0FA7B00BB
:203C600012226180137C0179008E828F83A3A3A3A3E0FA7B0012225BEE24DCF582EF34000C
:203C8000F583E4F0EE24E0F582EF3400F583E4F0EE24DFF582EF3400F583E4F0EE24DEF544
:203CA00082EF3400F583E4F08035EEFAEFFB12245F023F2BEE2469F582EF3400F583E064BA
:203CC000016003023D4AEE24DFF582EF3400F583E064016003023DBBEEFAEFFB12248FEECD
:203CE000246EF582EF3400F583E07003023F48EE246AF582EF3400F583E024FE602F24FE03
:203D00007003023AAF147003023B06147003023BE9147003023F3924FE7003023DED24FEEA
:203D20006092147003023E3A14604C80B2EE2469F582EF3400F583E064016003023AA590F8
:203D400003B1E060767916023F0CEEFAEFFB122465E964016003023F48EE24DFF582EF34EB
:203D600000F583E4F0EE2482F582EF3400F583E4F0EE2469023BDDEE2469F582EF3400F5DE
:203D800083E06401705D9003B2E06026EE2482F582EF3400F583E4F0EE2462F582EF34005B
:203DA000F5837401F0EE2467F582EF3400F5837401F09003B1E06003023CD8EE2471F8EF2F
:203DC0003400F988828983E024FFF0A3E034FFF088828983E0F8A3E0F9E8496003023F4880
:203DE000023F0AEEFAEFFB12246B023F2BEE2469F582EF3400F583E0640170349003B2E0FE
:203E000060B9EE24E1F582EF3400F5837401F0EE2420F582EF3400F583E0F8A3E0F9EE2475
:203E20001DF582EF3400F583E8F0A3E9F0023CD8EEFAEFFB122471023F2BEE2469F582EF23
:203E40003400F583E064016003023F17EE24EAF582EF3400F583E064017051EE24EBF5822E
:203E6000EF3400F583E064016003023CD8EE24F0F582EF3400F583121079EE24EEF582EFD4
:203E80003400F583121079EE24EDF582EF3400F583E0FC8E828F83A3A3A3A3E0FA7B007972
:203EA0000012224F7404120EBC023CD8EE2471F8EF3400F988828983E024FFF0A3E034FFBF
:203EC000F088828983E0F8A3E0F9E849707AEE24F0F582EF3400F583121079EE24EEF58247
:203EE000EF3400F583121079EE24EDF582EF3400F583E0FC8E828F83A3A3A3A3E0FA7B009C
:203F0000792212224F7404120EBC7922EEFAEFFB1224B979018033EE24ECF582EF3400F519
:203F2000837401F0EEFAEFFB122477EE2469F582EF3400F583E9F0800FEEFAEFFB1224839A
:203F4000E964017003023CD879007F02020FD8C082C083E9900774F0D083D082020B73C059
:203F600082C08312286D80F074F6120F06EAFEEBFF548060198003122915900774E0F912EC
:203F80002927EA4B70F1EEFAEF6480FB8019EE54206005EE64208008EE54106006EE641011
:203FA000FA80047A007B007F02020FD8020B7374F5120F06ECFEEDFF752102EA1460042420
:203FC000FD702C121ED7E9F5217024740D120EF2121079740D120EF2E0FCA3E0FDEEFAEFBA
:203FE000FB121EDD7402120EBC121FB512277DA9217F03020FD8020B73FFFFFFFFFFFFFF1D
:20400000EDAFFFFF0500009442424242FFFFFFFFFFFFFFFFFFFFFFFFFFFFFFFFFFFFFFFF79
:20402000000102030405060708090A0BFFFFFFFF0243DC0256E3FFFFFFFFFFFFFFFFFFFFF0
:20404000FFFFFFFFFFFFFFFFFFFFFFFFFFFFFFFFFFFFFFFFFFFFFFFFFFFFFF025E3AFFFFE3
:20406000FFFFFF024F64FFFFFFFFFF025E63FFFFFFFFFF025E11FFFFFFFFFFFFFFFFFFFF6E
:20408000FFFFFF025756FFFFFFFFFFFFFFFFFFFFFFFFFFFFFFFFFFFFFFFFFF024E60FFFFDB
:2040A000FFFFFFFFFFFFFFFFFFFFFF024EDCFFFFFFFFFF02554F01026A8701000059870267
:2040C0006E87010000978710A98503000088020272870300008102026E870100009687105B
:2040E00089850300000000026A870100005087026E87010000998710D9850200000000025A
:204100007287030000A2860270870100000000026E87010000998710C9850200007F860202
:204120007287030000A2860270870100007F860000E55ED95E009001000000A082E0817E50
:2041400081F7831381FD82008059868C834E846E864182488300000300000100000000008B
:204160000000003019612561FF0000B4000028002800283075A000A000A000A000000800B7
:2041800008E001F00010001000100010001000100050005000500010001000D007000000FF
:2041A0000000000F0001000500307507001000010081FF00000000FF5D627B626362FF024C
:2041C000020208025000A0000000E803026A870100005687026E87010000030D0290870103
:2041E0000000B903026E87010000040D027687010000CF03026E87010000050D027887011C
:204200000000D103026E87010000060D027A87080000D203026E87010000070D027C8701CD
:204220000000080DFF0100FF20026A870100005C87026E870100006C0D027E8700000000FB
:20424000000272870300001F04A568A568A568A568A568A568A568A568A568A568A568A509
:2042600068A568816B996B7B6B020202020202020202010D0000001001026A870100005F6F
:2042800087026E87010000AD0D028A870100009808026E87010000AE0D02888701000074F8
:2042A00087026E87010000AF0D0286870100008E87026E87010000B00D0284870100001EBD
:2042C00085026E87010000B10D0294870100009287026E87010000B20D02828701000007A2
:2042E00086026E87010000B30D0280870100009284026E87010000B40D0264870100003287
:2043000086026E87010000B50D026287010000B60D01E803053F100AFFFF00080101000359
:2043200002010600000000000000000000000000000000000000000000000000000000FF75
:20434000FF0110002000E803E5C754F84405F5C779012200000080FB124348B90003024390
:20436000C6E479447815B800028004F709D8FCE479597802B800028004F709D8FCE490027F
:2043800080787C790A8002F0A3D8FCD9FA78439040B67A01BA00028007E493A3F608DAF980
:2043A0007AFB7B0B9040B7789279038015E493A3AD82AE838A828B83F0A3AA82AB838D82D0
:2043C0008E83D8E9D9E77582527583E574041243EE75825375834374001243EE75D0007574
:2043E000815F754180754202759F00024358C09FF59FE473D09F22D083D082C09FE493C027
:20440000E0740193C0E0740293F59F22E066701008A3E066700A08A3E066700408A3E066CE
:2044200022E4936670130874019366700C08740293667005087403936622C3E7960809E74A
:20444000960809E7960809E796A2D265D03322C3E09608A3E09608A3E09608A3E096A2D29C
:2044600065D03322C021C3E096F52108A3E096422108A3E096422108A3E0964221A2D2651D
:20448000D033E5217001D3D02122C3E7960809E7960809E7960809E79622C3E09608A3E0EC
:2044A0009608A3E09608A3E09622C021C3E096F52108A3E096422108A3E096422108A3E03F
:2044C0009645217001D3D02122C3E49396087401939608740293960874039396220808088A
:2044E000EAC0E0EBC0E086F0E7A4FA180986F0E7A42AFA180986F0E7A42AFA180986F0E7A2
:20450000A42AFA1986F0E7A4FBE5F02AFA190886F0E7A42BFBE5F03AFA190886F0E7A42B27
:20452000FBE5F03AFA18180986F0E7A4C5F02BFBE43AFA1908E7C5F0C6A426F6E5F03BFBFC
:20454000E43AFA1886F0E7A4F6E5F00826F6E43B08F6E43A08F6D0E0FBD0E0FA22E4CFC018
:20456000E0E4CEC0E0E4CDC0E0E4CCC0E075F020E626F608E633F608E633F608E633F61884
:204580001818EC33FCED33FDEE33FEEF33FFC3EC9709ED9709EE9709EF97191919400FFFEA
:2045A000EC97FC09ED97FD09EE97FE191906D5F0BFECF709EDF709EEF709EFF7191919D0E2
:2045C000E0FCD0E0FDD0E0FED0E0FF2212463418181812455D1246231919192212462319CF
:2045E0001919080808E618181820E7E012455D12463418181822090909E719191920E7DC82
:20460000080808E618181820E70302455D12463418181812455D12463418181812462319B6
:20462000191922E4C397F709E497F709E497F709E497F722E4C396F608E496F608E496F63B
:2046400008E496F6226017080808C6A2E713C618C613C618C613C618C613C6D5E0E92260C4
:2046600016080808C6C313C618C613C618C613C618C613C6D5E0EA2270090808082260169B
:20468000181818C6C333C608C633C608C633C608C633C6D5E0EA22E627F60809E637F6080B
:2046A00009E637F60809E637F622E026F608A3E036F608A3E036F608A3E036F622E026F05F
:2046C00008A3E036F008A3E036F008A3E036F022C3E697F60809E697F60809E697F6080956
:2046E000E697F622C3E096F008A3E096F008A3E096F008A3E096F022E657F60809E657F630
:204700000809E657F60809E657F622E056F608A3E056F608A3E056F608A3E056F622E056E6
:20472000F008A3E056F008A3E056F008A3E056F022E647F60809E647F60809E647F6080958
:20474000E647F622E046F008A3E046F008A3E046F008A3E046F022E066F008A3E066F0087A
:20476000A3E066F008A3E066F022E0F608A3E0F608A3E0F608A3E0F622E6F008A3E6F00883
:20478000A3E6F008A3E6F022E0FAA3E0FBA3E0FCA3E0FD22EAF0A3EBF0A3ECF0A3EDF0220B
:2047A000E0FCA3E0FDA3E0FEA3E0FF22ECF0A3EDF0A3EEF0A3EFF022E0F8A3E0F9A3E0FA26
:2047C000A3E0FB22E8F0A3E9F0A3EAF0A3EBF022CAC0E0E6F0A308DAFAD0E0FA22CAC0E0D3
:2047E000E0A3C582CCC582C583CDC583F0A3C582CCC582C583CDC583DAE6D0E0CA22C3E432
:2048000098F8E499F912483F8026C3E49AFAE49BFBE920E7E912483FE498F8E499F922C35D
:20482000E498F8E499F912483FE498F8E499F9C3E49AFAE49BFB22EB20E7CFE920E7E0B9EA
:204840000010BB0008E88AF084F8AAF022E4FBC8FA22EB70227B10C833C8C933C93350070E
:20486000C39AC3DBF280069A50012ADBEAC833F4C8C933F4C9FA2275F008E4C833C8C9334F
:20488000C933C99AC99B5004C92AC93BD5F0ECFBC833F4C8E4C9FA22600D08C6A2E713C641
:2048A00018C613C6D5E0F322600C08C6C313C618C613C6D5E0F422700422600D18C6C33348
:2048C000C608C633C6D5E0F41822254110AF08F541400C15428008F54140021542D2AF2268
:2048E00000C0D0254110AF08F541500C05428008F54150020542D2AFD0D0222541F582109B
:20490000AF08F541400C15428008F54140021542D2AF854283222541F582E43542F58322F1
:204920002541F8E43542F9222541FAE43542FB222541FCE43542FD22E4732541C582C0E04B
:20494000E54234FFC583C0E0E541C3958224F810AF08858342858241800885834285824186
:20496000D2AFCEF0A3E520F0A37821E608F0A3DEFAEFF0A3E58124FAF8E608F0A3E608F06E
:20498000A3E608F0A30808E608F0A3E608F0A315811581D0E0FED0E0F8158115811581E8B5
:2049A000C0E0EEC0E0222541C582C0E0E54234FFC583C0E0E541C3958224F910AF0885832C
:2049C000428582418008858342858241D2AFCEF0A3E520F0A37821E608F0A3DEFAEFF0A345
:2049E000E58124FBF8E608F0A3E608F0A30808E608F0A3E608F0A315811581D0E0FED0E09C
:204A0000F815811581E8C0E0EEC0E022854283854182E0A3FEE0A3F5207821E0A3F608DF96
:204A2000FAE0A3FFE0A3C0E0E0A3C0E0E0A3C0E0E0A3C0E0E0A3C0E010AF08858241858334
:204A4000428008858241858342D2AFD083D0820243F4854283854182E0A3FEE0A3F5207878
:204A600021E0A3F608DFFAE0A3FFE0A3C0E0E0A3C0E0E0A3C0E0E0A3C0E010AF088582419E
:204A80008583428008858241858342D2AFD083D08222C0D02541C582C0E0E54234FFC583EB
:204AA000C0E0E541C3958224F310AF088583428582418008858342858241D2AFC8F0A3E907
:204AC000F0A3EAF0A3EBF0A37921E709F0A3D8FAECF0A3EDF0A3EEF0A3EFF0A3D0E0F0A314
:204AE000D0E0F0A3D0E0F0A3E520F0A3E5F0F0A322854283854182E0C0E0A3E0F9A3E0FA03
:204B0000A3E0FBA37821E0F608A3DFFAE0FCA3E0FDA3E0FEA3E0FFA3E0C0E0A3E0C0E0A339
:204B2000E0F5D0A3E0F520A3E0A3F5F010AF088583428582418008858342858241D2AFD069
:204B400082D083D0E0F8D0E03274048006740280027401C0E0F4041248FBD0E01247D022A3
:204B60007404800474028000CCC0E0EDC0E0E541C39CCCAD4250011D10AF068C418D4280BB
:204B8000068C418D42D2AF1247DDD0E0FDD0E0FC22D083D082C5F0E493A3C5F0C395F0F5DB
:204BA000F0E493A3C395F04005E5F0048001E475F002A42582F582E5F03583F583E493A3D8
:204BC000C0E0E493C0E022D083D082E9C0E0E493A3C386F0C5F095F0F908E493A386F0C5EB
:204BE000F095F0700BE493A3C3994005E9048002A3E475F002A42582F582E5F03583F583E6
:204C0000D0E0F9E493A3C0E0E493C0E022D083D082E9C0E0E493A3C386F0C5F095F0F9083C
:204C2000E493A386F0C5F095F0702408E493A386F0C5F095F0701908E493A386F0C5F095D9
:204C4000F0700E08E493A3C3994007E9048004A3A3A3E475F002A42582F582E5F03583F538
:204C600083D0E0F9E493A3C0E0E493C0E022D083D082CCC0E0E493A36006124C981470FA10
:204C8000E493A36006124CB71470FAD0E0FCE493A3C0E0E493C0E022C0E0E493A3D39C50E9
:204CA00010E493A3C39C400AD0E0D0E0D0E0024C8BA3A3A3D0E022C0E0E493A36C7009D00E
:204CC000E0D0E0D0E0024C8BA3A3D0E022D083D082ECC0E0EDC0E0E493A3FCE493A3FDEDCB
:204CE0004C600D124D19EC24FFFCED34FFFD80EFE493A3FCE493A3FDED4C600D124D58EC76
:204D000024FFFCED34FFFD80EFD0E0FDD0E0FCE493A3C0E0E493C0E022C0E0C3E493960824
:204D20007401939618400FE49366700808740193661870007019A3A3C3E49396087401936C
:204D40009618A3A3400DD0E0D0E0D0E0024D09A3A3A3A3A3A3D0E022C0E0C0F088F0E493C7
:204D60006670080874019366187000A8F0A3A3700BD0F0D0E0D0E0D0E0024D09A3A3D0F0D0
:204D8000D0E022D083D082ECC0E0EDC0E0EEC0E0EFC0E0E493A3FCE493A3FDE493A3FEE43D
:204DA00093A3FFEF4E4D4C6015124DFFEC24FFFCED34FFFDEE34FFFEEF34FFFF80E5E493D1
:204DC000A3FCE493A3FDE493A3FEE493A3FFEF4E4D4C6015124E3CEC24FFFCED34FFFDEEEF
:204DE00034FFFEEF34FFFF80E5D0E0FFD0E0FED0E0FDD0E0FCE493A3C0E0E493C0E022C093
:204E0000E0C0F088F01244C9A8F04007124421A8F0701AA3A3A3A31244C9A8F0A3A3A3A324
:204E20004013D0F0D0E0D0E0D0E0024DE9A3A3A3A3A3A3A3A3A3A3D0F0D0E022C0E0C0F0D7
:204E400088F0124421A8F0A3A3A3A3700BD0F0D0E0D0E0D0E0024DE9A3A3D0F0D0E022FFE5
:204E6000C0E074EF124A92A2AFE433FFD2AFA889E5AB58F521605BF4F589C2C590098574E4
:204E800001F0754300FA900982E0F9126F297E008E23752400740278231248B7124F4CEA50
:204EA0004B7028124F40B800028004C313D8FCA2E05018752300752401EE78231248B7AA26
:204EC00023AB24900280E0F9126E8D0EEEC3940440BEEFA2E092AF7F04024AF1C0E074EF1E
:204EE000124A92A2AFE433FFD2AFA88AE58D58F521604BF4F58AC2EB7E008E2375240074C3
:204F00000278231248B7124F4C74406A4B7028124F40B800028004C313D8FCA2E05018754D
:204F20002300752401EE78231248B7AA23AB24900280E0F9126E8D0EEEC3940440BC809221
:204F4000E8131313541F5407F8E52122740F2523F582740B3524F583E0F8A3E0F9E854C060
:204F6000FAE9FB22C0E074EF124A92A2AFE433FFD2AFA88BE5AC58F521604BF4F58BC2E85D
:204F80007E008E23752400740278231248B7124F4C74806A4B7028124F40B800028004C397
:204FA00013D8FCA2E05018752300752401EE78231248B7AA23AB24900280E0F9126E8D0EB2
:204FC000EEC3940440BC024ED274F51249A6EAFEEBFFEE2434F8EF3400F988218922EE246E
:204FE00035F582EF3400F583E0F8EE2437F582EF3400F583E0F523EC8523F0A4FCAAF085FC
:2050000023F0EDA42AFDE82CF8E43DF97A257B0012483FEA852182852283F0F8740758F9FC
:205020007401B900028004C333D9FCFAE8131313541FF8EE28F8EF3400F9E8245DF582E978
:205040003400F583E05A6008EE2434F582EF802CEE2434F582EF3400F583E0C0E0EE24368A
:20506000F582EF3400F583E0F5F0D0E084A8F0EE28F8EF3400F9E82438F582E93400F58313
:20508000E0F97F04024A5274F51249A6EAFEEBFFEE2434F582EF3400F583E0C0E0EE2435BB
:2050A000F582EF3400F583D0E0F08E828F83A3A3A3A3A3A3A3C082C0838E828F83A3A3A317
:2050C000A3A3E0F8A3E0F9D083D082E0C398F521A3E099F522EE247FF582EF3400F583E08A
:2050E00064017069EE2480F582EF3400F583E0F8A3E0F98E828F83A3A3A3A3A3A3A3E0FC07
:20510000A3E0FD8E828F83A3A3A3A3A3E0FAA3E0FBC3EA9CEB9D5010C3EC98ED99402EC337
:20512000EA98EB995027800EC3EA98EB994007C3EC98ED9940177CE27D05EEFAEFFB126804
:2051400003EE247FF582EF3400F583E4F0EE2434F8EF3400F9E8FCE9FDEE2435F582EF34D0
:2051600000F583E0F8EE2437F582EF3400F583E0F523E5218523F0A4F521AAF08523F0E51D
:2051800022A42AF522E82521F8E43522F97A257B0012483FEA8C828D83F0F8740758F974CB
:2051A00001B900028004C333D9FCFAE8131313541FF8EE28F8EF3400F9E8245DF582E93437
:2051C00000F583E05A6008EE2434F582EF802CEE2434F582EF3400F583E0C0E0EE2436F548
:2051E00082EF3400F583E0F5F0D0E084A8F0EE28F8EF3400F9E82438F582E93400F583E0A7
:20520000F9125E03025082C082C083854182854283E0F8A3E0F9C3EA9CEB9D5010C3EC986B
:20522000ED99401BC3EA98EB995014800EC3EA98EB994007C3EC98ED99400479018002793C
:2052400000D083D08222EAC39CFAEB9DFB2274EF1249A69004A8E064086005E06407702A69
:205260009061C8E060249004D6E0F4601DE0F875F003A4C8AAF02AF974D828FE740439FFCB
:205280008E828F83A3A3A3E0700302537E906060E0C0E0EE2468F582EF3400F583D0E0F0E1
:2052A000752562752606752100752200E5D914F523E5D95403F527601774036527605CE5EE
:2052C000236010EE2467F582EF3400F583E0700302536390065DE06401602AEE2482F582D8
:2052E000EF3400F583E06004780480027800852321E521C398FA95E0FB1266898A218B226C
:20530000EA45227005126A4F8074EE2482F582EF3400F583E070048A258B26E523601285AF
:205320002582852683F524E5D9F0A31524E52470F6EE2482F582EF3400F583E0604474FCEC
:205340002523F5237825124B4DAC23A927EEFAEFFB12689F74021248E0E97026AA21AB2255
:20536000126EC3793D8E828F83A3A3A3A3E0FA7B0012655DEEFAEFFB12681B1268CF790034
:205380008074740365276056852329752A007829124B4DAC25AD26AA21AB2212687B7402FE
:2053A0001248E0EE2468F582EF3400F583E064807004747F8001E0F5257825124B51E5272A
:2053C000F5257825124B51A923AC21AD229004D6E0FA7B0012652174021248E080139004D2
:2053E000A8E06408600BAC25AD26EEFAEFFB126929126A5B79017F0A024A5274F51249A652
:2054000074FC1248CAEAFEEBFF8921A2AFE433F522C2AF806AEE2463F8EF3400F97A007B24
:2054200000A2AFE433F523C2AF88828983E0FCA3E0FDEC4D603A88828983E0FAA3E0FB8A3E
:20544000828B83E0FCA3E0FD88828983ECF0A3EDF08A828B83E4F0A3F088828983E0FCA3D8
:20546000E0FDEC4D700A88828983A3A3E4F0A3F0E523A2E092AF126EC39005E9E004F0EE8B
:205480002463F582EF3400F583E0F8A3E0F9E849603DEE2463F582EF3400F583E02402FACA
:2054A000A3E03400FBEA2402F523EB3400F5247823124B4D8A828B83E0FCA3E0F9EEFAEF4C
:2054C000FB12683F74021248E0E970030254159005E9E060639005EAE0F89005E9E0C39870
:2054E000500C7402652170509005EBE0604A8E828F83A3A3A3A3E0854182854283F0A3E4F3
:20550000F09005E9E0F87402124916E8F0A3E4F09005E9E0F89005E8E028F074021249165D
:20552000AC82AD83854182854283AA82AB8379011265279005E9E4F0E522A2E092AF740475
:205540001248E0025082FFFF8551878552C622C0E0C0D0E8C0E0E9C0E0EAC0E0EBC0E0ECE1
:20556000C0E0EDC0E0EEC0E0C021C022C023C024C082C083C0F0A2AFE433FEC2AF759B00CA
:20558000906182E0A2E05012E591A2E0500C7591FE74016551700312524EE0A2E55051E53F
:2055A00091A2E5504B7591DF9004A8E064076005E06408702374016551703579019004D6D4
:2055C000E0FA75F003A4CAA8F028FB74D82AFA74043BFB1253FB8018E0640D70139004CA18
:2055E000E004F064287002E4F07A00E0F9126A61906182E0A2E64003025696E591A2E6408B
:20560000030256967591BF9004A8E06405700812695F12696B80031269657551001269D79C
:20562000E99004A9F079001269B912675B7A017B009004A7E0F9126E8D907803E0644270BB
:2056400055900661E014F0704DC2AF12564E00785AD0E0F618D0E0F6E59F54077005752215
:20566000FF800375227FC4C0E07859E6F52108E65522F522740B78211248A8D0E02521F8DD
:20568000906270E0A2E740F8E8C333906272F0906270E0D2E0F0906181E0A2E35009E5E9F3
:2056A000A2E3500375E9F7A3E0A2E75009E591A2E7500375917FEEA2E092AFD0F0D083D0ED
:2056C00082D024D023D022D021D0E0FED0E0FDD0E0FCD0E0FBD0E0FAD0E0F9D0E0F8D0D031
:2056E000D0E032C0E0C0D0C082C083906183E0A2E05009E5BFA2E0500375BFFEE0A2E15086
:2057000009E5BFA2E1500375BFFDE0A2E25009E5BFA2E2500375BFFBE0A2E35009E5BFA26A
:20572000E3500375BFF7E0A2E45009E5BFA2E4500375BFEFE0A2E55009E5BFA2E5500375F6
:20574000BFDFE0A2E65009E5BFA2E6500375BFBFD083D0828088C0E0C0D0E8C0E0E9C0E08A
:20576000EAC0E0EBC0E0ECC0E0EDC0E0C0F0E5A7A2E6500FE5A1A2E6500953A7BF75A1BFE3
:205780001257BBE5A7A2E5500CE5A1A2E5500653A7DF75A1DFE5A7A2E15009E5A1A2E15084
:2057A0000375A1FDE5A7A2E2500CE5A1A2E2500653A7FB75A1FBD0F00256CC74F81249A6B0
:2057C0007551019004A8E0640670151268ED8A828B83A3A3A3A3A3A3E0FAA3E0FB12694D84
:2057E000A2AFE433FED2AF9004AEE0640170187A207B009004A7E0F9126F597A207B00900B
:2058000004A7E0F9126E93906182E0D2E6F090065EE0602185C65280169004ADE064017078
:2058200008E5C654F84405F5C653BEFC1255487401655160E4EEA2E092AF7F01024A52FF6C
:205840008E538F54858258858357854182854283E0CEA3E0CF855882855783EBC9EAC8ED23
:20586000CBECCA75F010C3E833C8E933C9EA33CAEB33CBC3EA9EF556EB9FF555B35004ABBB
:2058800055AA56EC33CCED33CDD5F0DAAE53AF542274E91249A674F81248CA854182854219
:2058A00083ECF0A3EDF08A218B229004A8E024F7C394055006752101025A281268ED8A2399
:2058C0008B24AE23AF24EE4F7003025A25AC21AD227402124916AA82AB8312697D8E828FD0
:2058E00083A3A37525FF7526FF7527FF752800782512470B74021249167529FF752AFF75DC
:205900002BFF752C00782912470B7825792912448A502A782579291246D07521017522C8C1
:205920007523007524007821792512448A50528525218526228527238528248050752D01D2
:20594000752EC8752F00753000852921852A22852B23852C24782179251246D0782D7921AD
:2059600012448A401C752100752200752300752401782179291246D0782179251246978083
:205980000C75210175220075230075240074097821124678752519F526F527F5287821799D
:2059A0002512455D8E828F83A3A3A3A3A3A3E0F8A3E0F97AD07B0312483F88258926E4F530
:2059C00027F528782179251246977406124916E0F8A3E0F97AD07B0312483FE8FA8A25E448
:2059E000F5267821792512448A5007782179251246D09004A8E06408600AE064066005E03E
:205A00006405702D75250D7825792112448A40217525F47526FF7527FF7528FF78217925CB
:205A2000124697800C752100752200752300752400854182854283E0F8A3E0F583888278A6
:205A40002112477974081248E07F10024A5274F71249A612698F90065CE064017010906251
:205A600045E4F0A3F053F4F343FE0C5390F312693BE5C654804449F5C6E59E547F6449702D
:205A8000F8906185740FF090065AE0F47002A3E0604E90065BE0600814601B14602E804094
:205AA00075210175220090065AE078211248B7E521F45280802A75210175220090065AE0CA
:205AC00078211248B7E521F45290801475210175220090065AE078211248B7E521F452A018
:205AE00079007F02024A5274F71249A6E9FEEAFF74016E700C7A807B009004A7E0F9126E6A
:205B00008D906FCCE493F46008E493F912674F800953C680E59E547F70FA12694190065C92
:205B2000E06401700312677390065AE0F47002A3E0604B90065BE0600814601A14602C8076
:205B40003D75210175220090065AE078211248B7E5214280802875210175220090065AE0F2
:205B600078211248B7E5214290801375210175220090065AE078211248B7E52142A0126905
:205B80008F1268ED8A218B22A821A922E8496015E5E170FCE82414F582E93400F583E0F44B
:205BA0006003E0F5E174016F700A7A019004A7E0F9126F29025AE274ED1249A68A218B223D
:205BC0008C238D247413124916782512476A7821792512448A752901752AC8752B00752CAF
:205BE000005012782179251246D07829792112448A50168010782579211246D07829792535
:205C000012448A40047901800279007F0C024A5274ED1249A68A218B228C238D247413120F
:205C20004916782512476A7825792112448A4011782179251246D0AA21AB22AC23AD248026
:205C400022752900752A00752B00752C01782979251246D078297921124697AA29AB2AACBE
:205C60002BAD2C80A68A828B837521FF7522FF7523FF752400782112471E7F04024A5274E0
:205C8000F51249A68C828D83782112476A8A828B8378211246E4EA2404F8EB3400F98C8275
:205CA0008D83A3A3A3A3E0FCA3E0FD88828983C3E09CF0A3E09DF088828983C3E09420A387
:205CC000E0944E40268A828B837521FF7522FF7523FF7524FF78211246BD8A828B83A3A31A
:205CE000A3A3E02420F0A3E0344EF0025C6574F51249A6E9FE9005FDE0FAA3E0FBEEC33373
:205D0000F8E433F9749928F582748539F583E02AF521A3E03BF5227821124B4D7A407B4276
:205D20007C0F7D0012584074021248E08A218B228C238D247410782112465FAA21AB227F5E
:205D400004024A5274F11249A68A258B268C278D28740F124916E0FAA3E0FB741112491631
:205D6000E0F521A3E0F5227821124B4DEA2401F521EB3400F522E4F523F524782579211297
:205D800044DD752171752202782579211244DDAA25AB26AC27AD2812584074021248E08BAB
:205DA00022EA452260047A0180027A00EC2AFCED3400FD7413124916E0F8A3E0F9E8FEE94A
:205DC000FFECF8EDF97A717B0212483F882189228E828F837821124779ECF8EDF97A717BE8
:205DE0000212483F8A218B22740578211248B78E828F83A3A3A3A3E521F0A3E522F07F08C8
:205E0000024A52C082C083E9906000F0D083D08222C0E074F2124A92A2AFE433FED2AFC232
:205E2000C0E5D1A2E4500653D1EF126DA3754300EEA2E092AF7F01024AF1C0E0C0D0E8C0DD
:205E4000E0E9C0E0A9A8D2AFC2C7754300E9A2E7E433F8E9A2E792AFD0E0F9D0E0F8D0D0A1
:205E6000D0E032C0E0C0D0E8C0E0E9C0E0EAC0E0C082C083A2AFE433FAD2AF900B09E0F891
:205E8000A3E0687008539AFBA374018022C2E9900B09E0F8740128F0748928F582E4340A8B
:205EA000F583E0F5C1900B09E0C394804002E4F0EAA2E092AFD083D082D0E0FAD0E0F9D0EE
:205EC000E0F8D0D0D0E032C2AF020000221243F701B0041243F799B0041243F772B20412B3
:205EE00043F7C7B2041243F71DB3041243F732B3041243F7BFB3041243F747B4041243F73D
:205F000047D5031243F72FD6031243F755D8031243F7FBD8031243F77CD9031243F71FDB86
:205F2000031243F7E4DB031243F7FEDB031243F783DC031243F71EDD031243F700DE0312F1
:205F400043F736DE031243F752E0031243F71BE1031243F778E1031243F700E2031243F7FF
:205F60000080011243F71C80011243F7F481011243F7AF82011243F70B83011243F7578376
:205F8000011243F78783011243F7D384011243F74F85011243F7C485011243F73D8601122C
:205FA00043F75287011243F7D587011243F7FA89011243F79D91011243F7EB91011243F7C4
:205FC0001B92011243F77292011243F79F92011243F71DB9011243F775B9011243F704BA9C
:205FE000011243F7A3BD011243F730C3011243F760C3011243F7A4CA011243F794CB0112CA
:2060000043F7DDCB011243F707CD011243F74BCE011243F78BCE011243F740D0011243F7C7
:2060200031FE031243F748FE031243F779FE031243F7B4FE031243F7DEFE031243F708FF54
:20604000031243F71FFF031243F736FF031243F74DFF031243F776FF031243F789FF031204
:2060600043F79FFF031243F7B2FF031243F7D9FF031243F705E2031243F709E3031243F761
:2060800041E3031243F764E3031243F76FE3031243F792E3031243F7A1E4031243F776E563
:2060A000031243F7F1E5031243F779E6031243F7B4E6031243F7EBE6031243F779E7031240
:2060C00043F752E8031243F7B2E8031243F7BDE8031243F73CE9031243F73FE9031243F735
:2060E00042E9031243F7D1E9031243F7D4E9031243F704EA031243F72EEA031243F71CEB66
:20610000031243F7CEEB031243F73FEC031243F737ED031243F76BED031243F7EDED0312A5
:2061200043F735EE031243F799EE031243F726EF031243F7E0EF031243F7EFF2031243F72B
:206140007AF4031243F79DF4031243F700B5041243F728B5041243F756B5041243F78DB5D3
:20616000041243F7EBB5041243F736B6041243F781B6041243F7C1B6041243F707B7041281
:2061800043F735B7041243F7F2B7041243F7FCB7041243F709B8041243F73CB8041243F738
:2061A00008B9041243F714B9041243F72CB9041243F736B9041243F708FF021243F716FFD3
:2061C000021243F72EFF021243F746FF021243F70080031243F7AC80031243F7278103125C
:2061E00043F74882031243F78482031243F72D83031243F71484031243F77885031243F7C5
:20620000CF85031243F75086031243F74087031243F78D87031243F71388031243F7458886
:20622000031243F7598A031243F79B8A031243F7B98A031243F73C8B031243F7108C031210
:2062400043F7D88C031243F77A87041243F74D88041243F7F688041243F74989041243F7EB
:20626000F989041243F7858A041243F7718B041243F7A08B041243F7B38C041243F7FB8C10
:20628000041243F7D08D041243F70C8E041243F7288E041243F766E4041243F7C9CA0412CE
:2062A00043F7EFCA041243F70BCC041243F715CC041243F74ACD041243F742CE041243F77C
:2062C0004CCE041243F7C0A5041243F7F0A6041243F723A7041243F76DA7041243F734A95E
:2062E000041243F7F8EC011243F762ED011243F7C1EE011243F74BEF011243F75BEF0112A1
:2063000043F788EF011243F7DFEF011243F788F0011243F78FF1011243F759F2011243F73A
:20632000B9F3011243F7FCF3011243F7A1F4011243F7EEF4011243F714F5011243F722F7A8
:20634000011243F727F7011243F72CF9011243F779F9011243F7ECF9011243F71FFA0112F6
:2063600043F7C1FA011243F76AFB011243F7A2FB011243F7A5FB011243F7EDFB011243F71D
:206380002DFC011243F784FC011243F74FD1041243F767D1041243F7AFD1041243F7C5D15C
:2063A000041243F70CD2041243F720D3041243F7ADD3041243F7F8D3041243F7008002129D
:2063C00043F70C80021243F74780021243F78C80021243F74C81021243F7DB81021243F775
:2063E0006182021243F7C682021243F7F282021243F72B83021243F76985021243F74D8708
:20640000021243F73389021243F7768A021243F7C48C021243F7D68D021243F7218F0212C3
:2064200043F73190021243F74E90021243F78990021243F7AB90021243F70E91021243F70A
:20644000CF95021243F76496021243F7B596021243F7DC96021243F72E97021243F74C97F3
:20646000021243F7A697021243F78F98021243F7059A021243F7899A021243F7EA940412DC
:2064800043F7F494041243F73795041243F75295041243F7E295041243F70A96041243F7E0
:2064A0004796041243F77E96041243F7A796041243F71C97041243F73197041243F74697C6
:2064C000041243F76897041243F7B197041243F7C697041243F7DA97041243F7FF9704126B
:2064E00043F73998041243F76598041243F79398041243F7DE98041243F74E99041243F77C
:20650000BC99041243F7C799041243F7F299041243F73B9A041243F7659A041243F7909AAD
:20652000041243F7F5E0041243F7F68E031243F74490031243F72491031243F74391031203
:2065400043F7C091031243F70392031243F75993031243F70994031243F74296031243F72F
:20656000C998031243F76A99031243F7609A031243F75D9B031243F7B79C031243F7429D08
:20658000031243F76ADE041243F7D3DE041243F727DF041243F74EDF041243F77FDF0412CC
:2065A00043F735BE041243F7A2BE041243F7E9BE041243F701C0041243F7FDC0041243F799
:2065C000E0C1041243F7C8F5031243F70AF6031243F7DCF6031243F7B5F7031243F7AFF8AC
:2065E000031243F791F9031243F7FAF9031243F7B0FA031243F724FB031243F790FB03122A
:2066000043F7B9FB031243F733FC031243F7CCFC031243F731FD031243F746FD031243F799
:206620008CFD031243F7A5FD031243F70AFE031243F70DFE031243F756CE041243F77ECE20
:20664000041243F7BCCE041243F77ACF041243F7E1CF041243F7FDCF041243F725D0041250
:2066600043F755D0041243F764D0041243F7E1D0041243F707D1041243F788CA021243F71E
:20668000A9CC021243F7DBCE021243F717CF021243F744CF021243F732D0021243F77DD00E
:2066A000021243F7C8D0021243F7DAD0021243F71AD1021243F74FD1021243F79DD1021285
:2066C00043F7CCD1021243F7EFD1021243F73CD2021243F7C1D2021243F7DBD4021243F74D
:2066E0001AD7021243F75BD7021243F7FFD8021243F740D9021243F739DA021243F746DCCC
:20670000021243F7B9DC021243F705DD021243F7B3DD021243F784DE021243F7B8DE0212E0
:2067200043F722DF021243F732C8031243F730C9031243F7C9CF031243F7EAD1031243F74E
:20674000B5D3031243F71DD5031243F7F09A021243F79F9B021243F7CC9B021243F7129C5E
:20676000021243F7489D021243F7A69D021243F7CB9D021243F7619F021243F7DB9F021275
:2067800043F718A0021243F792A0021243F7ECA1021243F74CA3021243F752A4021243F7DD
:2067A000B3A5021243F705A6021243F776A7021243F78FA7021243F7EDA7021243F711A8B0
:2067C000021243F7FFA8021243F732A9021243F7A2A9021243F71CAA021243F766AA02127C
:2067E00043F730AB021243F705AC021243F7E4AC021243F76FAD021243F7DDAD021243F717
:2068000051AE021243F77CAE021243F73BAF021243F7A0B0021243F7BDB0021243F7DCB096
:20682000021243F7CDB1021243F7F2B1021243F71CB2021243F797B2021243F7F1B20212E3
:2068400043F75AB4021243F708B5021243F749B5021243F75EBA031243F7ACBA031243F72F
:20686000B8BA031243F796BB031243F7C7BB031243F7F8BB031243F778BC031243F7B0BCF5
:20688000031243F702BD031243F73FBD031243F75CBF031243F782C1031243F76DC303120F
:2068A00043F757C5031243F7F37F001243F7E7AA041243F78BAB041243F75DAC041243F7B5
:2068C00087AC041243F7D5AE041243F71AD1011243F764D1011243F756DF011243F7DBE06B
:2068E000011243F74CE7011243F747E8011243F784E8011243F7A7E8011243F7E9E80112D6
:2069000043F7F2E8011243F7FCE8011243F7EAE9011243F7E0EA011243F779B5021243F732
